{
  "contractName": "KryptoBird",
  "abi": [
    {
      "inputs": [],
      "stateMutability": "nonpayable",
      "type": "constructor"
    },
    {
      "anonymous": false,
      "inputs": [
        {
          "indexed": true,
          "internalType": "address",
          "name": "from",
          "type": "address"
        },
        {
          "indexed": true,
          "internalType": "address",
          "name": "to",
          "type": "address"
        },
        {
          "indexed": true,
          "internalType": "uint256",
          "name": "tokenId",
          "type": "uint256"
        }
      ],
      "name": "Transfer",
      "type": "event"
    },
    {
      "inputs": [
        {
          "internalType": "address",
          "name": "_owner",
          "type": "address"
        }
      ],
      "name": "balanceOf",
      "outputs": [
        {
          "internalType": "uint256",
          "name": "",
          "type": "uint256"
        }
      ],
      "stateMutability": "view",
      "type": "function",
      "constant": true
    },
    {
      "inputs": [
        {
          "internalType": "uint256",
          "name": "",
          "type": "uint256"
        }
      ],
      "name": "kryptobird",
      "outputs": [
        {
          "internalType": "string",
          "name": "",
          "type": "string"
        }
      ],
      "stateMutability": "view",
      "type": "function",
      "constant": true
    },
    {
      "inputs": [],
      "name": "name",
      "outputs": [
        {
          "internalType": "string",
          "name": "",
          "type": "string"
        }
      ],
      "stateMutability": "view",
      "type": "function",
      "constant": true
    },
    {
      "inputs": [
        {
          "internalType": "uint256",
          "name": "_tokenId",
          "type": "uint256"
        }
      ],
      "name": "ownerOf",
      "outputs": [
        {
          "internalType": "address",
          "name": "",
          "type": "address"
        }
      ],
      "stateMutability": "view",
      "type": "function",
      "constant": true
    },
    {
      "inputs": [],
      "name": "symbol",
      "outputs": [
        {
          "internalType": "string",
          "name": "",
          "type": "string"
        }
      ],
      "stateMutability": "view",
      "type": "function",
      "constant": true
    },
    {
      "inputs": [
        {
          "internalType": "uint256",
          "name": "index",
          "type": "uint256"
        }
      ],
      "name": "tokenByIndex",
      "outputs": [
        {
          "internalType": "uint256",
          "name": "",
          "type": "uint256"
        }
      ],
      "stateMutability": "view",
      "type": "function",
      "constant": true
    },
    {
      "inputs": [
        {
          "internalType": "address",
          "name": "owner",
          "type": "address"
        },
        {
          "internalType": "uint256",
          "name": "index",
          "type": "uint256"
        }
      ],
      "name": "tokenOfOwnerByIndex",
      "outputs": [
        {
          "internalType": "uint256",
          "name": "",
          "type": "uint256"
        }
      ],
      "stateMutability": "view",
      "type": "function",
      "constant": true
    },
    {
      "inputs": [],
      "name": "totalSupply",
      "outputs": [
        {
          "internalType": "uint256",
          "name": "",
          "type": "uint256"
        }
      ],
      "stateMutability": "view",
      "type": "function",
      "constant": true
    },
    {
      "inputs": [
        {
          "internalType": "string",
          "name": "_kryptoBird",
          "type": "string"
        }
      ],
      "name": "mint",
      "outputs": [],
      "stateMutability": "nonpayable",
      "type": "function"
    }
  ],
  "bytecode": "0x60806040523480156200001157600080fd5b506040518060400160405280600a81526020017f4b727970746f42697264000000000000000000000000000000000000000000008152506040518060400160405280600581526020017f4b424952440000000000000000000000000000000000000000000000000000008152508181816000908051906020019062000098929190620000bc565b508060019080519060200190620000b1929190620000bc565b5050505050620001d0565b828054620000ca906200019b565b90600052602060002090601f016020900481019282620000ee57600085556200013a565b82601f106200010957805160ff19168380011785556200013a565b828001600101855582156200013a579182015b82811115620001395782518255916020019190600101906200011c565b5b5090506200014991906200014d565b5090565b5b80821115620001685760008160009055506001016200014e565b5090565b7f4e487b7100000000000000000000000000000000000000000000000000000000600052602260045260246000fd5b60006002820490506001821680620001b457607f821691505b602082108103620001ca57620001c96200016c565b5b50919050565b61145780620001e06000396000f3fe608060405234801561001057600080fd5b50600436106100935760003560e01c80634f6ccce7116100665780634f6ccce7146101345780636352211e1461016457806370a082311461019457806395d89b41146101c4578063d85d3d27146101e257610093565b806306fdde031461009857806318160ddd146100b65780632f745c59146100d457806347fa198314610104575b600080fd5b6100a06101fe565b6040516100ad9190610bf8565b60405180910390f35b6100be610290565b6040516100cb9190610c33565b60405180910390f35b6100ee60048036038101906100e99190610cec565b61029d565b6040516100fb9190610c33565b60405180910390f35b61011e60048036038101906101199190610d2c565b61034d565b60405161012b9190610bf8565b60405180910390f35b61014e60048036038101906101499190610d2c565b6103f9565b60405161015b9190610c33565b60405180910390f35b61017e60048036038101906101799190610d2c565b61046a565b60405161018b9190610d68565b60405180910390f35b6101ae60048036038101906101a99190610d83565b61051b565b6040516101bb9190610c33565b60405180910390f35b6101cc6105d2565b6040516101d99190610bf8565b60405180910390f35b6101fc60048036038101906101f79190610ee5565b610664565b005b60606000805461020d90610f5d565b80601f016020809104026020016040519081016040528092919081815260200182805461023990610f5d565b80156102865780601f1061025b57610100808354040283529160200191610286565b820191906000526020600020905b81548152906001019060200180831161026957829003601f168201915b5050505050905090565b6000600480549050905090565b60006102a88361051b565b82106102e9576040517f08c379a00000000000000000000000000000000000000000000000000000000081526004016102e090610fda565b60405180910390fd5b600660008473ffffffffffffffffffffffffffffffffffffffff1673ffffffffffffffffffffffffffffffffffffffff168152602001908152602001600020828154811061033a57610339610ffa565b5b9060005260206000200154905092915050565b6008818154811061035d57600080fd5b90600052602060002001600091509050805461037890610f5d565b80601f01602080910402602001604051908101604052809291908181526020018280546103a490610f5d565b80156103f15780601f106103c6576101008083540402835291602001916103f1565b820191906000526020600020905b8154815290600101906020018083116103d457829003601f168201915b505050505081565b6000610403610290565b8210610444576040517f08c379a000000000000000000000000000000000000000000000000000000000815260040161043b90611075565b60405180910390fd5b6004828154811061045857610457610ffa565b5b90600052602060002001549050919050565b6000806002600084815260200190815260200160002060009054906101000a900473ffffffffffffffffffffffffffffffffffffffff169050600073ffffffffffffffffffffffffffffffffffffffff168173ffffffffffffffffffffffffffffffffffffffff1603610512576040517f08c379a000000000000000000000000000000000000000000000000000000000815260040161050990611107565b60405180910390fd5b80915050919050565b60008073ffffffffffffffffffffffffffffffffffffffff168273ffffffffffffffffffffffffffffffffffffffff160361058b576040517f08c379a000000000000000000000000000000000000000000000000000000000815260040161058290611199565b60405180910390fd5b600360008373ffffffffffffffffffffffffffffffffffffffff1673ffffffffffffffffffffffffffffffffffffffff168152602001908152602001600020549050919050565b6060600180546105e190610f5d565b80601f016020809104026020016040519081016040528092919081815260200182805461060d90610f5d565b801561065a5780601f1061062f5761010080835404028352916020019161065a565b820191906000526020600020905b81548152906001019060200180831161063d57829003601f168201915b5050505050905090565b60098160405161067491906111f5565b908152602001604051809103902060009054906101000a900460ff16156106d0576040517f08c379a00000000000000000000000000000000000000000000000000000000081526004016106c79061127e565b60405180910390fd5b60088190806001815401808255809150506001900390600052602060002001600090919091909150908051906020019061070b929190610abc565b5060006008805490509050610720338261075b565b600160098360405161073291906111f5565b908152602001604051809103902060006101000a81548160ff0219169083151502179055505050565b610765828261077c565b61076e8161093d565b6107788282610986565b5050565b600073ffffffffffffffffffffffffffffffffffffffff168273ffffffffffffffffffffffffffffffffffffffff16036107eb576040517f08c379a00000000000000000000000000000000000000000000000000000000081526004016107e290611310565b60405180910390fd5b6107f481610a4a565b15610834576040517f08c379a000000000000000000000000000000000000000000000000000000000815260040161082b9061137c565b60405180910390fd5b816002600083815260200190815260200160002060006101000a81548173ffffffffffffffffffffffffffffffffffffffff021916908373ffffffffffffffffffffffffffffffffffffffff1602179055506001600360008473ffffffffffffffffffffffffffffffffffffffff1673ffffffffffffffffffffffffffffffffffffffff16815260200190815260200160002060008282546108d691906113cb565b92505081905550808273ffffffffffffffffffffffffffffffffffffffff16600073ffffffffffffffffffffffffffffffffffffffff167fddf252ad1be2c89b69c2b068fc378daa952ba7f163c4a11628f55a4df523b3ef60405160405180910390a45050565b6004805490506005600083815260200190815260200160002081905550600481908060018154018082558091505060019003906000526020600020016000909190919091505550565b600660008373ffffffffffffffffffffffffffffffffffffffff1673ffffffffffffffffffffffffffffffffffffffff168152602001908152602001600020805490506007600083815260200190815260200160002081905550600660008373ffffffffffffffffffffffffffffffffffffffff1673ffffffffffffffffffffffffffffffffffffffff1681526020019081526020016000208190806001815401808255809150506001900390600052602060002001600090919091909150555050565b6000806002600084815260200190815260200160002060009054906101000a900473ffffffffffffffffffffffffffffffffffffffff169050600073ffffffffffffffffffffffffffffffffffffffff168173ffffffffffffffffffffffffffffffffffffffff161415915050919050565b828054610ac890610f5d565b90600052602060002090601f016020900481019282610aea5760008555610b31565b82601f10610b0357805160ff1916838001178555610b31565b82800160010185558215610b31579182015b82811115610b30578251825591602001919060010190610b15565b5b509050610b3e9190610b42565b5090565b5b80821115610b5b576000816000905550600101610b43565b5090565b600081519050919050565b600082825260208201905092915050565b60005b83811015610b99578082015181840152602081019050610b7e565b83811115610ba8576000848401525b50505050565b6000601f19601f8301169050919050565b6000610bca82610b5f565b610bd48185610b6a565b9350610be4818560208601610b7b565b610bed81610bae565b840191505092915050565b60006020820190508181036000830152610c128184610bbf565b905092915050565b6000819050919050565b610c2d81610c1a565b82525050565b6000602082019050610c486000830184610c24565b92915050565b6000604051905090565b600080fd5b600080fd5b600073ffffffffffffffffffffffffffffffffffffffff82169050919050565b6000610c8d82610c62565b9050919050565b610c9d81610c82565b8114610ca857600080fd5b50565b600081359050610cba81610c94565b92915050565b610cc981610c1a565b8114610cd457600080fd5b50565b600081359050610ce681610cc0565b92915050565b60008060408385031215610d0357610d02610c58565b5b6000610d1185828601610cab565b9250506020610d2285828601610cd7565b9150509250929050565b600060208284031215610d4257610d41610c58565b5b6000610d5084828501610cd7565b91505092915050565b610d6281610c82565b82525050565b6000602082019050610d7d6000830184610d59565b92915050565b600060208284031215610d9957610d98610c58565b5b6000610da784828501610cab565b91505092915050565b600080fd5b600080fd5b7f4e487b7100000000000000000000000000000000000000000000000000000000600052604160045260246000fd5b610df282610bae565b810181811067ffffffffffffffff82111715610e1157610e10610dba565b5b80604052505050565b6000610e24610c4e565b9050610e308282610de9565b919050565b600067ffffffffffffffff821115610e5057610e4f610dba565b5b610e5982610bae565b9050602081019050919050565b82818337600083830152505050565b6000610e88610e8384610e35565b610e1a565b905082815260208101848484011115610ea457610ea3610db5565b5b610eaf848285610e66565b509392505050565b600082601f830112610ecc57610ecb610db0565b5b8135610edc848260208601610e75565b91505092915050565b600060208284031215610efb57610efa610c58565b5b600082013567ffffffffffffffff811115610f1957610f18610c5d565b5b610f2584828501610eb7565b91505092915050565b7f4e487b7100000000000000000000000000000000000000000000000000000000600052602260045260246000fd5b60006002820490506001821680610f7557607f821691505b602082108103610f8857610f87610f2e565b5b50919050565b7f6f776e657220696e6465782069206f7574206f6620626f756e64732100000000600082015250565b6000610fc4601c83610b6a565b9150610fcf82610f8e565b602082019050919050565b60006020820190508181036000830152610ff381610fb7565b9050919050565b7f4e487b7100000000000000000000000000000000000000000000000000000000600052603260045260246000fd5b7f676c6f62616c20696e6465782069206f7574206f6620626f756e647321000000600082015250565b600061105f601d83610b6a565b915061106a82611029565b602082019050919050565b6000602082019050818103600083015261108e81611052565b9050919050565b7f4f776e657220717565727920666f7220206e6f6e2d6578697874656e7420746f60008201527f6b656e0000000000000000000000000000000000000000000000000000000000602082015250565b60006110f1602383610b6a565b91506110fc82611095565b604082019050919050565b60006020820190508181036000830152611120816110e4565b9050919050565b7f4572726f722d206f776e657220717565727920666f72206e6f6e2d657869787460008201527f656e7420746f6b656e0000000000000000000000000000000000000000000000602082015250565b6000611183602983610b6a565b915061118e82611127565b604082019050919050565b600060208201905081810360008301526111b281611176565b9050919050565b600081905092915050565b60006111cf82610b5f565b6111d981856111b9565b93506111e9818560208601610b7b565b80840191505092915050565b600061120182846111c4565b915081905092915050565b7f4572726f72202d204b727970746f4269726420616c7265616479206d696e746560008201527f6400000000000000000000000000000000000000000000000000000000000000602082015250565b6000611268602183610b6a565b91506112738261120c565b604082019050919050565b600060208201905081810360008301526112978161125b565b9050919050565b7f4552433732313a206d696e74696e6720746f20746865207a65726f206164647260008201527f6573730000000000000000000000000000000000000000000000000000000000602082015250565b60006112fa602383610b6a565b91506113058261129e565b604082019050919050565b60006020820190508181036000830152611329816112ed565b9050919050565b7f4552433732313a20746f6b656e20616c7265616479206d696e74656400000000600082015250565b6000611366601c83610b6a565b915061137182611330565b602082019050919050565b6000602082019050818103600083015261139581611359565b9050919050565b7f4e487b7100000000000000000000000000000000000000000000000000000000600052601160045260246000fd5b60006113d682610c1a565b91506113e183610c1a565b9250827fffffffffffffffffffffffffffffffffffffffffffffffffffffffffffffffff038211156114165761141561139c565b5b82820190509291505056fea264697066735822122094d0d4e98027b88934743483289bf2a5cb1a203a83769e27770a29c74e70a95264736f6c634300080e0033",
  "immutableReferences": {},
  "source": "// SPDX-License-Identifier: MIT\npragma solidity ^0.8.0;\nimport './ERC721Connector.sol';\n\ncontract KryptoBird is ERC721Connector{\n    // array to store out nft\n    string [] public kryptobird;\n    mapping(string => bool) _kryptoBirdExists;\n\n    function mint(string memory _kryptoBird) public {\n        require(!_kryptoBirdExists[_kryptoBird], 'Error - KryptoBird already minted');\n       //this is deprecated- uint _id = KryptoBird.push(_kryptoBird);\n        kryptobird.push(_kryptoBird);\n        uint _id = kryptobird.length;\n        _mint(msg.sender, _id); \n        _kryptoBirdExists[_kryptoBird] = true; \n    }\n   \n    constructor()ERC721Connector('KryptoBird', 'KBIRD'){\n\n    }\n\n}",
  "sourcePath": "/Users/ibrahim/workspace/nft-marketplace/src/contracts/KryptoBirdz.sol",
  "compiler": {
    "name": "solc",
    "version": "0.8.14+commit.80d49f37.Emscripten.clang"
  },
  "schemaVersion": "3.4.7",
  "updatedAt": "2022-05-22T06:06:57.496Z",
  "networkType": "ethereum",
  "devdoc": {
    "kind": "dev",
    "methods": {
      "balanceOf(address)": {
        "details": "NFTs assigned to the zero address are considered invalid, and this  function throws for queries about the zero address.",
        "params": {
          "_owner": "An address for whom to query the balance"
        },
        "returns": {
          "_0": "The number of NFTs owned by `_owner`, possibly zero"
        }
      },
      "ownerOf(uint256)": {
        "details": "NFTs assigned to zero address are considered invalid, and queries  about them do throw.",
        "params": {
          "_tokenId": "The identifier for an NFT"
        },
        "returns": {
          "_0": "The address of the owner of the NFT"
        }
      }
    },
    "version": 1
  },
  "userdoc": {
    "kind": "user",
    "methods": {
      "balanceOf(address)": {
        "notice": "Count all NFTs assigned to an owner"
      },
      "ownerOf(uint256)": {
        "notice": "Find the owner of an NFT"
      }
    },
    "version": 1
  }
}