{
  "contractName": "KryptoBird",
  "abi": [
    {
      "inputs": [],
      "stateMutability": "nonpayable",
      "type": "constructor"
    },
    {
      "anonymous": false,
      "inputs": [
        {
          "indexed": true,
          "internalType": "address",
          "name": "from",
          "type": "address"
        },
        {
          "indexed": true,
          "internalType": "address",
          "name": "to",
          "type": "address"
        },
        {
          "indexed": true,
          "internalType": "uint256",
          "name": "tokenId",
          "type": "uint256"
        }
      ],
      "name": "Transfer",
      "type": "event"
    },
    {
      "inputs": [
        {
          "internalType": "address",
          "name": "_owner",
          "type": "address"
        }
      ],
      "name": "balanceOf",
      "outputs": [
        {
          "internalType": "uint256",
          "name": "",
          "type": "uint256"
        }
      ],
      "stateMutability": "view",
      "type": "function",
      "constant": true
    },
    {
      "inputs": [
        {
          "internalType": "uint256",
          "name": "",
          "type": "uint256"
        }
      ],
      "name": "kryptobird",
      "outputs": [
        {
          "internalType": "string",
          "name": "",
          "type": "string"
        }
      ],
      "stateMutability": "view",
      "type": "function",
      "constant": true
    },
    {
      "inputs": [],
      "name": "name",
      "outputs": [
        {
          "internalType": "string",
          "name": "",
          "type": "string"
        }
      ],
      "stateMutability": "view",
      "type": "function",
      "constant": true
    },
    {
      "inputs": [
        {
          "internalType": "uint256",
          "name": "_tokenId",
          "type": "uint256"
        }
      ],
      "name": "ownerOf",
      "outputs": [
        {
          "internalType": "address",
          "name": "",
          "type": "address"
        }
      ],
      "stateMutability": "view",
      "type": "function",
      "constant": true
    },
    {
      "inputs": [],
      "name": "symbol",
      "outputs": [
        {
          "internalType": "string",
          "name": "",
          "type": "string"
        }
      ],
      "stateMutability": "view",
      "type": "function",
      "constant": true
    },
    {
      "inputs": [],
      "name": "totalSupply",
      "outputs": [
        {
          "internalType": "uint256",
          "name": "",
          "type": "uint256"
        }
      ],
      "stateMutability": "view",
      "type": "function",
      "constant": true
    },
    {
      "inputs": [
        {
          "internalType": "string",
          "name": "_kryptoBird",
          "type": "string"
        }
      ],
      "name": "mint",
      "outputs": [],
      "stateMutability": "nonpayable",
      "type": "function"
    }
  ],
  "bytecode": "0x60806040523480156200001157600080fd5b506040518060400160405280600a81526020017f4b727970746f42697264000000000000000000000000000000000000000000008152506040518060400160405280600581526020017f4b424952440000000000000000000000000000000000000000000000000000008152508181816000908051906020019062000098929190620000bc565b508060019080519060200190620000b1929190620000bc565b5050505050620001d0565b828054620000ca906200019b565b90600052602060002090601f016020900481019282620000ee57600085556200013a565b82601f106200010957805160ff19168380011785556200013a565b828001600101855582156200013a579182015b82811115620001395782518255916020019190600101906200011c565b5b5090506200014991906200014d565b5090565b5b80821115620001685760008160009055506001016200014e565b5090565b7f4e487b7100000000000000000000000000000000000000000000000000000000600052602260045260246000fd5b60006002820490506001821680620001b457607f821691505b602082108103620001ca57620001c96200016c565b5b50919050565b61108e80620001e06000396000f3fe608060405234801561001057600080fd5b506004361061007d5760003560e01c80636352211e1161005b5780636352211e146100ee57806370a082311461011e57806395d89b411461014e578063d85d3d271461016c5761007d565b806306fdde031461008257806318160ddd146100a057806347fa1983146100be575b600080fd5b61008a610188565b6040516100979190610976565b60405180910390f35b6100a861021a565b6040516100b591906109b1565b60405180910390f35b6100d860048036038101906100d39190610a0c565b610227565b6040516100e59190610976565b60405180910390f35b61010860048036038101906101039190610a0c565b6102d3565b6040516101159190610a7a565b60405180910390f35b61013860048036038101906101339190610ac1565b610384565b60405161014591906109b1565b60405180910390f35b61015661043b565b6040516101639190610976565b60405180910390f35b61018660048036038101906101819190610c23565b6104cd565b005b60606000805461019790610c9b565b80601f01602080910402602001604051908101604052809291908181526020018280546101c390610c9b565b80156102105780601f106101e557610100808354040283529160200191610210565b820191906000526020600020905b8154815290600101906020018083116101f357829003601f168201915b5050505050905090565b6000600480549050905090565b6008818154811061023757600080fd5b90600052602060002001600091509050805461025290610c9b565b80601f016020809104026020016040519081016040528092919081815260200182805461027e90610c9b565b80156102cb5780601f106102a0576101008083540402835291602001916102cb565b820191906000526020600020905b8154815290600101906020018083116102ae57829003601f168201915b505050505081565b6000806002600084815260200190815260200160002060009054906101000a900473ffffffffffffffffffffffffffffffffffffffff169050600073ffffffffffffffffffffffffffffffffffffffff168173ffffffffffffffffffffffffffffffffffffffff160361037b576040517f08c379a000000000000000000000000000000000000000000000000000000000815260040161037290610d3e565b60405180910390fd5b80915050919050565b60008073ffffffffffffffffffffffffffffffffffffffff168273ffffffffffffffffffffffffffffffffffffffff16036103f4576040517f08c379a00000000000000000000000000000000000000000000000000000000081526004016103eb90610dd0565b60405180910390fd5b600360008373ffffffffffffffffffffffffffffffffffffffff1673ffffffffffffffffffffffffffffffffffffffff168152602001908152602001600020549050919050565b60606001805461044a90610c9b565b80601f016020809104026020016040519081016040528092919081815260200182805461047690610c9b565b80156104c35780601f10610498576101008083540402835291602001916104c3565b820191906000526020600020905b8154815290600101906020018083116104a657829003601f168201915b5050505050905090565b6009816040516104dd9190610e2c565b908152602001604051809103902060009054906101000a900460ff1615610539576040517f08c379a000000000000000000000000000000000000000000000000000000000815260040161053090610eb5565b60405180910390fd5b60088190806001815401808255809150506001900390600052602060002001600090919091909150908051906020019061057492919061083a565b506000600880549050905061058933826105c4565b600160098360405161059b9190610e2c565b908152602001604051809103902060006101000a81548160ff0219169083151502179055505050565b6105ce82826105db565b6105d78161079c565b5050565b600073ffffffffffffffffffffffffffffffffffffffff168273ffffffffffffffffffffffffffffffffffffffff160361064a576040517f08c379a000000000000000000000000000000000000000000000000000000000815260040161064190610f47565b60405180910390fd5b610653816107c8565b15610693576040517f08c379a000000000000000000000000000000000000000000000000000000000815260040161068a90610fb3565b60405180910390fd5b816002600083815260200190815260200160002060006101000a81548173ffffffffffffffffffffffffffffffffffffffff021916908373ffffffffffffffffffffffffffffffffffffffff1602179055506001600360008473ffffffffffffffffffffffffffffffffffffffff1673ffffffffffffffffffffffffffffffffffffffff16815260200190815260200160002060008282546107359190611002565b92505081905550808273ffffffffffffffffffffffffffffffffffffffff16600073ffffffffffffffffffffffffffffffffffffffff167fddf252ad1be2c89b69c2b068fc378daa952ba7f163c4a11628f55a4df523b3ef60405160405180910390a45050565b600481908060018154018082558091505060019003906000526020600020016000909190919091505550565b6000806002600084815260200190815260200160002060009054906101000a900473ffffffffffffffffffffffffffffffffffffffff169050600073ffffffffffffffffffffffffffffffffffffffff168173ffffffffffffffffffffffffffffffffffffffff161415915050919050565b82805461084690610c9b565b90600052602060002090601f01602090048101928261086857600085556108af565b82601f1061088157805160ff19168380011785556108af565b828001600101855582156108af579182015b828111156108ae578251825591602001919060010190610893565b5b5090506108bc91906108c0565b5090565b5b808211156108d95760008160009055506001016108c1565b5090565b600081519050919050565b600082825260208201905092915050565b60005b838110156109175780820151818401526020810190506108fc565b83811115610926576000848401525b50505050565b6000601f19601f8301169050919050565b6000610948826108dd565b61095281856108e8565b93506109628185602086016108f9565b61096b8161092c565b840191505092915050565b60006020820190508181036000830152610990818461093d565b905092915050565b6000819050919050565b6109ab81610998565b82525050565b60006020820190506109c660008301846109a2565b92915050565b6000604051905090565b600080fd5b600080fd5b6109e981610998565b81146109f457600080fd5b50565b600081359050610a06816109e0565b92915050565b600060208284031215610a2257610a216109d6565b5b6000610a30848285016109f7565b91505092915050565b600073ffffffffffffffffffffffffffffffffffffffff82169050919050565b6000610a6482610a39565b9050919050565b610a7481610a59565b82525050565b6000602082019050610a8f6000830184610a6b565b92915050565b610a9e81610a59565b8114610aa957600080fd5b50565b600081359050610abb81610a95565b92915050565b600060208284031215610ad757610ad66109d6565b5b6000610ae584828501610aac565b91505092915050565b600080fd5b600080fd5b7f4e487b7100000000000000000000000000000000000000000000000000000000600052604160045260246000fd5b610b308261092c565b810181811067ffffffffffffffff82111715610b4f57610b4e610af8565b5b80604052505050565b6000610b626109cc565b9050610b6e8282610b27565b919050565b600067ffffffffffffffff821115610b8e57610b8d610af8565b5b610b978261092c565b9050602081019050919050565b82818337600083830152505050565b6000610bc6610bc184610b73565b610b58565b905082815260208101848484011115610be257610be1610af3565b5b610bed848285610ba4565b509392505050565b600082601f830112610c0a57610c09610aee565b5b8135610c1a848260208601610bb3565b91505092915050565b600060208284031215610c3957610c386109d6565b5b600082013567ffffffffffffffff811115610c5757610c566109db565b5b610c6384828501610bf5565b91505092915050565b7f4e487b7100000000000000000000000000000000000000000000000000000000600052602260045260246000fd5b60006002820490506001821680610cb357607f821691505b602082108103610cc657610cc5610c6c565b5b50919050565b7f4f776e657220717565727920666f7220206e6f6e2d6578697874656e7420746f60008201527f6b656e0000000000000000000000000000000000000000000000000000000000602082015250565b6000610d286023836108e8565b9150610d3382610ccc565b604082019050919050565b60006020820190508181036000830152610d5781610d1b565b9050919050565b7f4572726f722d206f776e657220717565727920666f72206e6f6e2d657869787460008201527f656e7420746f6b656e0000000000000000000000000000000000000000000000602082015250565b6000610dba6029836108e8565b9150610dc582610d5e565b604082019050919050565b60006020820190508181036000830152610de981610dad565b9050919050565b600081905092915050565b6000610e06826108dd565b610e108185610df0565b9350610e208185602086016108f9565b80840191505092915050565b6000610e388284610dfb565b915081905092915050565b7f4572726f72202d204b727970746f4269726420616c7265616479206d696e746560008201527f6400000000000000000000000000000000000000000000000000000000000000602082015250565b6000610e9f6021836108e8565b9150610eaa82610e43565b604082019050919050565b60006020820190508181036000830152610ece81610e92565b9050919050565b7f4552433732313a206d696e74696e6720746f20746865207a65726f206164647260008201527f6573730000000000000000000000000000000000000000000000000000000000602082015250565b6000610f316023836108e8565b9150610f3c82610ed5565b604082019050919050565b60006020820190508181036000830152610f6081610f24565b9050919050565b7f4552433732313a20746f6b656e20616c7265616479206d696e74656400000000600082015250565b6000610f9d601c836108e8565b9150610fa882610f67565b602082019050919050565b60006020820190508181036000830152610fcc81610f90565b9050919050565b7f4e487b7100000000000000000000000000000000000000000000000000000000600052601160045260246000fd5b600061100d82610998565b915061101883610998565b9250827fffffffffffffffffffffffffffffffffffffffffffffffffffffffffffffffff0382111561104d5761104c610fd3565b5b82820190509291505056fea2646970667358221220b10e37e0501a6e6908cbd8389629dc0f5fe161604ae6214901af8e1ac68c9d7064736f6c634300080e0033",
  "immutableReferences": {},
  "source": "// SPDX-License-Identifier: MIT\npragma solidity ^0.8.0;\nimport './ERC721Connector.sol';\n\ncontract KryptoBird is ERC721Connector{\n    // array to store out nft\n    string [] public kryptobird;\n    mapping(string => bool) _kryptoBirdExists;\n\n    function mint(string memory _kryptoBird) public {\n        require(!_kryptoBirdExists[_kryptoBird], 'Error - KryptoBird already minted');\n       //this is deprecated- uint _id = KryptoBird.push(_kryptoBird);\n        kryptobird.push(_kryptoBird);\n        uint _id = kryptobird.length;\n        _mint(msg.sender, _id); \n        _kryptoBirdExists[_kryptoBird] = true; \n    }\n   \n    constructor()ERC721Connector('KryptoBird', 'KBIRD'){\n\n    }\n\n}",
  "sourcePath": "/Users/ibrahim/workspace/nft-marketplace/src/contracts/KryptoBirdz.sol",
  "compiler": {
    "name": "solc",
    "version": "0.8.14+commit.80d49f37.Emscripten.clang"
  },
  "schemaVersion": "3.4.7",
  "updatedAt": "2022-05-22T04:10:38.990Z",
  "networkType": "ethereum",
  "devdoc": {
    "kind": "dev",
    "methods": {
      "balanceOf(address)": {
        "details": "NFTs assigned to the zero address are considered invalid, and this  function throws for queries about the zero address.",
        "params": {
          "_owner": "An address for whom to query the balance"
        },
        "returns": {
          "_0": "The number of NFTs owned by `_owner`, possibly zero"
        }
      },
      "ownerOf(uint256)": {
        "details": "NFTs assigned to zero address are considered invalid, and queries  about them do throw.",
        "params": {
          "_tokenId": "The identifier for an NFT"
        },
        "returns": {
          "_0": "The address of the owner of the NFT"
        }
      },
      "totalSupply()": {
        "returns": {
          "_0": "A count of valid NFTs tracked by this contract, where each one of  them has an assigned and queryable owner not equal to the zero address"
        }
      }
    },
    "version": 1
  },
  "userdoc": {
    "kind": "user",
    "methods": {
      "balanceOf(address)": {
        "notice": "Count all NFTs assigned to an owner"
      },
      "ownerOf(uint256)": {
        "notice": "Find the owner of an NFT"
      },
      "totalSupply()": {
        "notice": "Count NFTs tracked by this contract"
      }
    },
    "version": 1
  }
}